:100000000C9434000C945D000C945D000C945D0025
:100010000C945D000C945D000C945D000C945D00EC
:100020000C945D000C945B020C945D000C945D00DC
:100030000C945D000C945D000C945D000C945D00CC
:100040000C945D000C945D000C945D000C945D00BC
:100050000C945D000C945D000C945D000C945D00AC
:100060000C9495020C945D0011241FBECFEFD8E0D4
:10007000DEBFCDBF14BE0FB6F894A8958091600086
:10008000886180936000109260000FBE11E0A0E0D4
:10009000B1E0EAEEFDE002C005900D92A230B1079A
:1000A000D9F722E0A2E0B1E001C01D92A536B20767
:1000B000E1F70E94D7040C94F3060C9400008091A1
:1000C0001F02882399F0EDE1F2E082818150828362
:1000D000A181B0E0A35EBD4F13968C9191819F5F8B
:1000E00091839181903411F410921E020895EDE1F4
:1000F000F2E010821182128210926002E9E1F1E0D6
:1001000010821182128210921C0280930001880FCB
:100110008093BA00ECEBF0E084E0808385EC808390
:10012000089580911B010895DC0180911B018823B3
:10013000C9F090911A0120E1929FF0011124E45E30
:10014000FE4F20E101900D922A95E1F79F5F9031DB
:1001500019F090931A0102C010921A0181508093F5
:100160001B0181E00895DC01E5E0F1E08BEA80838A
:1001700083E0860F81833C91328370E06D5F7F4F17
:100180006430710574F123E030E093E0FD01E20F8B
:10019000F31F32974081F901EB5FFE4F40839F5F71
:1001A000292F30E0261737078CF312C0FC01EB5FD4
:1001B000FE4F808138272F5F822F90E086179707A8
:1001C000ACF3FC01EB5FFE4F30838DEC818308952F
:1001D000E5E0F1E032818181382783E090E023E09F
:1001E000E5CF80910601382783E090E0EACF349B89
:1001F00025C0089522E02A95F1F700C0019721F06B
:10020000349BF8CF0895FFCFECEBF0E080E18083E2
:100210008AE18A95F1F700C080910001880F8093F0
:10022000BA0085EC808398E088E10FB6F894A89531
:10023000809360000FBE90936000E5CF22E02A9586
:10024000F1F700C087EE93E0DBCF4F925F926F92A1
:100250007F928F929F92AF92BF92CF92DF92EF9256
:10026000FF920F931F93CF93DF93CDB7DEB76497C1
:100270000FB6F894DEBF0FBECDBF0E94F70080918D
:100280001F02882309F400C1FE013196CE01459674
:100290001192E817F907E1F780911F02882309F40A
:1002A000DDC089818B3A69F00DE112E00E945F00A8
:1002B0008983D80112969C91992309F4CFC08B3A77
:1002C000A9F780911F02882309F4D4C003C092814A
:1002D000992341F00E945F00482E8A83B2E1B8174B
:1002E00050F4AFC0AFECB7E01197F1F700C00000D9
:1002F000815069F7A6C0882E912C3401B2E06B0EB4
:10030000711CE3E06E16710404F56894EE24E1F8C4
:10031000F12C35C0D80112962C91222369F00E944D
:100320005F00F60181936F01FFEFEF1AFF0AEA14F5
:10033000FB04F1F4750123C0AFECB7E01197F1F7BE
:1003400000C00000915031F71AC06E01B3E0CB0E2F
:10035000D11CA82EB12CE2E0AE0EB11C6894EE24A4
:10036000E1F8F12C0DE112E00F2EF9E05F2EF02DF7
:10037000D80112968C91882309F474C0D0CF6E14E2
:100380007F0409F05EC0FE01E80DF91D82818D3CFD
:1003900009F057C0B2E08B1691047CF0FE01329652
:1003A00021E030E02C0F3D1F240D311D80E09191A4
:1003B0008927E217F307D9F701C080E0FE01E80DB5
:1003C000F91D918198133DC02091190130E1239FBF
:1003D000F0011124E75EFE4F8B81838384E0881651
:1003E00091049CF0DE011496E0E12E9FC0011124DF
:1003F000FC01E35EFE4F0196840D911D875E9E4FCA
:100400003D913193E817F907D9F72F5F2093190130
:10041000203111F41092190180911B01803120F4D8
:100420008F5F80931B0130C0E9E1F1E081E08093B0
:100430001C0281818F5F8183803131F510921A0116
:1004400023C0809102018F5F80930201EDE1F2E011
:100450001082118212821092600216C089818B3A3A
:1004600081F72FCF8FEC97E00197F1F700C00000E4
:10047000952D50CFAFECB7E01197F1F700C0000019
:1004800089E0EDE1F2E023CF64960FB6F894DEBF89
:100490000FBECDBFDF91CF911F910F91FF90EF90D5
:1004A000DF90CF90BF90AF909F908F907F906F9094
:1004B0005F904F9008951F920F920FB60F921124E4
:1004C0002F933F934F935F936F937F938F939F935C
:1004D000AF93BF93EF93FF93ECEBF0E080E1808369
:1004E0008AE18A95F1F700C080910001880F80931E
:1004F000BA0084E0808385EC80830E94F700E1EB02
:10050000F0E080818D7F8083FF91EF91BF91AF916B
:100510009F918F917F916F915F914F913F912F911B
:100520000F900FBE0F901F9018951F920F920FB64D
:100530000F9211248F939F93AF93BF93EF93FF93E9
:100540008091B900883809F47AC090F4883609F4AB
:1005500042C030F4882309F472C08036E1F173C0E0
:100560008837C9F18038D9F1803709F06CC033C0C1
:10057000883A99F050F4883909F461C0803A09F456
:100580005AC0803909F05FC02AC0803C01F1883C24
:1005900009F455C0883B39F056C085E091E090934E
:1005A000040180930301E0910301F0910401808133
:1005B0008093BB0080910301909104010196909378
:1005C00004018093030185EC8093BC003FC085EC5F
:1005D0008093BC003BC085EC8093BC0037C0809109
:1005E000BB00ADE1B2E0EC91F0E0E35EFD4F838350
:1005F0008C918F5F8C938C91803411F410921D023A
:1006000080911F02803430F4EDE1F2E082818F5F4F
:1006100082830DC0EDE1F2E081E080936002818190
:100620008F5F81838181803411F410921E0285ECEA
:100630008093BC000BC085EC8093BC0007C080E9B0
:100640008093BC0003C085EC8093BC00FF91EF91C8
:10065000BF91AF919F918F910F900FBE0F901F9000
:100660001895AC0138988FEC97E00197F1F700C02E
:10067000000014161506DCF420E030E080E0419A1A
:10068000EFECF7E03197F1F700C00000880F96B16A
:100690009170890F4198EFECF7E03197F1F700C0C6
:1006A00000002F5F3F4F2417350749F7089580E07A
:1006B0000895399A389A28E030E0982F9078880F7A
:1006C000992341F0409AEFECF7E03197F1F700C041
:1006D000000007C04098EFECF7E03197F1F700C059
:1006E0000000419AEFECF7E03197F1F700C000000D
:1006F0004198EFECF7E03197F1F700C0000021508E
:100700003109D9F608954198EFECF7E03197F1F708
:1007100000C00000409AEFECF7E03197F1F700C01D
:100720000000399A389AEFECF7E03197F1F700C002
:100730000000419AEFECF7E03197F1F700C00000BC
:100740004098EFECF7E03197F1F700C000004198D6
:10075000EFECF7E03197F1F700C00000419AEFECC1
:10076000F7E03197F1F700C00000409AEFECF7E0B6
:100770003197F1F700C000004198EFECF7E03197B6
:10078000F1F700C000004098EFECF7E03197F1F787
:1007900000C000000E94590338988FEC97E0019741
:1007A000F1F700C00000419A86B1EFECF7E0319715
:1007B000F1F700C0000041988FEC97E00197F1F746
:1007C00000C0000086B10895389888EC90E0EFE909
:1007D000FFE03197F1F700C00000309B02C00197A5
:1007E000B1F70895CF93DF933898399A88E090E075
:1007F0000E943103C82FD0E0DC2FCC27389A8FEC31
:1008000097E00197F1F700C00000409A8FEC97E065
:100810000197F1F700C0000040988FEC97E0019736
:10082000F1F700C00000419A8FEC97E00197F1F7D3
:1008300000C0000041988FEC97E00197F1F700C0ED
:100840000000389888E090E00E9431039E01282B38
:10085000C901DF91CF910895389A399A409A8FEC67
:1008600097E00197F1F700C00000419A8FEC97E004
:100870000197F1F700C0000041988FEC97E00197D5
:10088000F1F700C000000895CF93DF9383E00E944A
:1008900083030E94E4030E94F203EC010E942C04F3
:1008A000CE01DF91CF9108950E944404BC0180E005
:1008B00090E00E94F8052AE037ED43E25CE30E94F5
:1008C000860626E636E640E252E40E945C0508957C
:1008D0004F925F926F927F928F929F92AF92BF9250
:1008E000CF92DF92EF92FF9285E00E9483030E94F5
:1008F000E4030E94F203BC0180E090E00E94F8054E
:100900006B017C010E942C0424E533EE45E25DE39B
:10091000C701B6010E94860620E030E040E850E4BE
:100920000E945C054B015C0122EA37EE4BE356EB7B
:10093000C701B6010E948606A70196010E9486069D
:100940009B01AC01C501B4010E945D054B015C0136
:100950000E94540420E030E048EC51E40E945C0521
:100960002B013C012CEA35EC47EA58E3C701B601FC
:100970000E9486062AE037ED43E25CE30E945D05B3
:100980009B01AC01C301B2010E948606A50194013E
:100990000E945D05FF90EF90DF90CF90BF90AF90E9
:1009A0009F908F907F906F905F904F900895CF931E
:1009B000DF93CDB7DEB7A0970FB6F894DEBF0FBEBA
:1009C000CDBF8FE39CE90197F1F700C0000083E100
:1009D00084B982E087B987EC8AB941988DE40E9496
:1009E000770078948DE4898B8BE08A8B8B8B8C8B52
:1009F0008D8B03E011E00E94540420E030E048ECCD
:100A000052E40E9486060E94C905609363027093B7
:100A10006402098B7A8B6B8B0E94680420E030E0C3
:100A200048EC52E40E9486060E94C9056093610268
:100A3000709362027C8B6D8B64E0CE0141960E94C4
:100A4000B3000E9425010E949100882359F1CE0134
:100A500001960E9494008981823059F018F4813007
:100A600031F020C0833039F0843089F01BC0599AAE
:100A700019C0599817C05A9A9FEF20E782E0915009
:100A800020408040E1F700C000005A980BC05A9AFD
:100A90009FEF20E782E0915020408040E1F700C0C6
:100AA00000005A988FEC97E00197F1F700C0000022
:100AB0008BB181278BB99FCF5058BB27AA270E94A3
:100AC00074050C944C060E943E0638F00E944506C0
:100AD00020F039F49F3F19F426F40C943B060EF4F1
:100AE000E095E7FB0C943506E92F0E945D0658F36C
:100AF000BA17620773078407950720F079F4A6F503
:100B00000C947F060EF4E0950B2EBA2FA02D0B014E
:100B1000B90190010C01CA01A0011124FF27591B42
:100B200099F0593F50F4503E68F11A16F040A22F48
:100B3000232F342F4427585FF3CF469537952795B9
:100B4000A795F0405395C9F77EF41F16BA0B620BB8
:100B5000730B840BBAF09150A1F0FF0FBB1F661FFF
:100B6000771F881FC2F70EC0BA0F621F731F841F42
:100B700048F4879577956795B795F7959E3F08F068
:100B8000B0CF9395880F08F09927EE0F979587952A
:100B900008950E94650688F09F5798F0B92F99270D
:100BA000B751B0F0E1F0660F771F881F991F1AF058
:100BB000BA95C9F714C0B13091F00E947F06B1E038
:100BC00008950C947F06672F782F8827B85F39F037
:100BD000B93FCCF3869577956795B395D9F73EF4F1
:100BE00090958095709561957F4F8F4F9F4F089599
:100BF000E89409C097FB3EF49095809570956195B7
:100C00007F4F8F4F9F4F9923A9F0F92F96E9BB276C
:100C10009395F695879577956795B795F111F8CFE8
:100C2000FAF4BB0F11F460FF1BC06F5F7F4F8F4F53
:100C30009F4F16C0882311F096E911C0772321F049
:100C40009EE8872F762F05C0662371F096E8862FE1
:100C500070E060E02AF09A95660F771F881FDAF738
:100C6000880F9695879597F9089597F99F6780E87B
:100C700070E060E008959FEF80EC089500240A94EE
:100C80001616170618060906089500240A94121667
:100C90001306140605060895092E0394000C11F49A
:100CA000882352F0BB0F40F4BF2B11F460FF04C047
:100CB0006F5F7F4F8F4F9F4F089557FD9058440FA0
:100CC000551F59F05F3F71F04795880F97FB991FAB
:100CD00061F09F3F79F08795089512161306140668
:100CE000551FF2CF4695F1DF08C0161617061806F5
:100CF000991FF1CF86957105610508940895E894D0
:100D0000BB2766277727CB0197F908950E9499069C
:100D10000C944C060E943E0638F00E94450620F0D6
:100D2000952311F00C9435060C943B0611240C9479
:100D300080060E945D0670F3959FC1F3950F50E009
:100D4000551F629FF001729FBB27F00DB11D639F7D
:100D5000AA27F00DB11DAA1F649F6627B00DA11D23
:100D6000661F829F2227B00DA11D621F739FB00DC9
:100D7000A11D621F839FA00D611D221F749F332739
:100D8000A00D611D231F849F600D211D822F762FD2
:100D90006A2F11249F5750409AF0F1F088234AF0AF
:100DA000EE0FFF1FBB1F661F771F881F915050401B
:100DB000A9F79E3F510580F00C9435060C948006EF
:100DC0005F3FE4F3983ED4F3869577956795B795A2
:100DD000F795E7959F5FC1F7FE2B880F911D9695BC
:0A0DE000879597F90895F894FFCF66
:020DEA00010006
:00000001FF
