S01100004750535061727365722E73726563BC
S11300000C9452000C947B000C947B000C947B00A9
S11300100C947B000C947B000C947B000C947B0070
S11300200C947B000C9479020C947B000C947B0060
S11300300C947B000C947B000C947B000C947B0050
S11300400C947B000C947B000C947B000C947B0040
S11300500C947B000C947B000C947B000C947B0030
S11300600C94B3020C947B004E414E494E495459B2
S1130070494E46CDCCCC3D0AD7233C17B7D138776F
S1130080CC2B329595E6241FB14F0A000020410085
S113009000C84200401C4620BCBE4CCA1B0E5AAECF
S11300A0C59D740011241FBECFEFD8E0DEBFCDBFC5
S11300B014BE0FB6F894A89580916000886180936F
S11300C06000109260000FBE11E0A0E0B1E0E2E336
S11300D0F4E102C005900D92AE36B107D9F723E0E2
S11300E0AEE6B1E001C01D92A13EB207E1F70E9465
S11300F0BA040C94170A0C94000080919D03882381
S113010099F0EBE9F3E0828181508283A181B0E030
S1130110A556BC4F13968C9191819F5F91839181D9
S1130120903411F410929C030895EBE9F3E01082EB
S1130130118212821092DE03E7E8F1E0108211824C
S1130140128210929A0380930001880F8093BA0060
S1130150ECEBF0E084E0808385EC8083089580916B
S113016089010895DC01809189018823C9F0909167
S1130170880121E2929FF0011124E657FE4F21E20B
S113018001900D922A95E1F79F5F903119F09093B9
S1130190880102C01092880181508093890181E016
S11301A00895DC01E3E7F1E08BEA808383E0860FC6
S11301B081833C91328370E06D5F7F4F64307105C1
S11301C074F123E030E093E0FD01E20FF31F329776
S11301D04081F901ED58FE4F40839F5F292F30E0A5
S11301E0261737078CF312C0FC01ED58FE4F8081AF
S11301F038272F5F822F90E086179707ACF3FC0116
S1130200ED58FE4F30838DEC81830895E3E7F1E0F0
S113021032818181382783E090E023E0E5CF80912B
S11302207401382783E090E0EACF349B25C0089519
S113023022E02A95F1F700C0019721F0349BF8CF12
S11302400895FFCFECEBF0E080E180838AE18A95AA
S1130250F1F700C080910001880F8093BA0085EC0B
S1130260808398E088E10FB6F894A89580936000A5
S11302700FBE90936000E5CF22E02A95F1F700C00D
S113028087EE93E0DBCF4F925F926F927F928F92D3
S11302909F92AF92BF92CF92DF92EF92FF920F9311
S11302A01F93CF93DF93CDB7DEB764970FB6F8945F
S11302B0DEBF0FBECDBF0E94150180919D03882330
S11302C009F400C1FE013196CE0145961192E8175A
S11302D0F907E1F780919D03882309F4DDC0898142
S11302E08B3A69F00BE913E00E947D008983D80101
S11302F012969C91992309F4CFC08B3AA9F7809167
S11303009D03882309F4D4C003C09281992341F04A
S11303100E947D00482E8A83B2E1B81750F4AFC022
S1130320AFECB7E01197F1F700C00000815069F716
S1130330A6C0882E912C3401B2E06B0E711CE3E050
S11303406E16710404F56894EE24E1F8F12C35C0BE
S1130350D80112962C91222369F00E947D00F601A7
S113036081936F01FFEFEF1AFF0AEA14FB04F1F423
S1130370750123C0AFECB7E01197F1F700C000009E
S1130380915031F71AC06E01B3E0CB0ED11CA82EE8
S1130390B12CE2E0AE0EB11C6894EE24E1F8F12C2D
S11303A00BE913E00F2EF9E05F2EF02DD801129621
S11303B08C91882309F474C0D0CF6E147F0409F0A3
S11303C05EC0FE01E80DF91D82818D3C09F057C025
S11303D0B2E08B1691047CF0FE01329621E030E00D
S11303E02C0F3D1F240D311D80E091918927E217C8
S11303F0F307D9F701C080E0FE01E80DF91D9181F2
S113040098133DC02091870131E2239FF00111240C
S1130410E957FE4F8B81838384E0881691049CF016
S1130420DE011496E1E22E9FC0011124FC01E55780
S1130430FE4F0196840D911D89579E4F3D91319336
S1130440E817F907D9F72F5F20938701203111F4BA
S11304501092870180918901803120F48F5F80930D
S1130460890130C0E7E8F1E081E080939A0381815B
S11304708F5F8183803131F51092880123C0809190
S113048070018F5F80937001EBE9F3E010821182B9
S113049012821092DE0316C089818B3A81F72FCF26
S11304A08FEC97E00197F1F700C00000952D50CF35
S11304B0AFECB7E01197F1F700C0000089E0EBE979
S11304C0F3E023CF64960FB6F894DEBF0FBECDBF22
S11304D0DF91CF911F910F91FF90EF90DF90CF901C
S11304E0BF90AF909F908F907F906F905F904F9050
S11304F008951F920F920FB60F9211242F933F93DA
S11305004F935F936F937F938F939F93AF93BF9317
S1130510EF93FF93ECEBF0E080E180838AE18A952E
S1130520F1F700C080910001880F8093BA0084E045
S1130530808385EC80830E941501E1EBF0E08081EB
S11305408D7F8083FF91EF91BF91AF919F918F91A8
S11305507F916F915F914F913F912F910F900FBEBB
S11305600F901F9018951F920F920FB60F9211249F
S11305708F939F93AF93BF93EF93FF938091B900B1
S1130580883809F47AC090F4883609F442C030F40B
S1130590882309F472C08036E1F173C08837C9F149
S11305A08038D9F1803709F06CC033C0883A99F0AB
S11305B050F4883909F461C0803A09F45AC080398A
S11305C009F05FC02AC0803C01F1883C09F455C0A1
S11305D0883B39F056C083E791E090937201809391
S11305E07101E0917101F091720180818093BB00EF
S11305F080917101909172010196909372018093A0
S1130600710185EC8093BC003FC085EC8093BC00F5
S11306103BC085EC8093BC0037C08091BB00ABE944
S1130620B3E0EC91F0E0E556FC4F83838C918F5F4F
S11306308C938C91803411F410929B0380919D03D0
S1130640803430F4EBE9F3E082818F5F82830DC064
S1130650EBE9F3E081E08093DE0381818F5F8183A6
S11306608181803411F410929C0385EC8093BC004A
S11306700BC085EC8093BC0007C080E98093BC006C
S113068003C085EC8093BC00FF91EF91BF91AF91C3
S11306909F918F910F900FBE0F901F901895E2ECD1
S11306A0F0E080818660808389E18093C400E1EC7E
S11306B0F0E08081886180830895E0ECF0E080813F
S11306C08823ECF78091C60008958F929F92AF9291
S11306D0BF92CF92DF92EF92FF92CF93DF93EA0122
S11306E020E030E048EC52E40E9447066B017C01B4
S11306F00E94B9064B015C0180E090E00E94E8068C
S11307009B01AC01C701B6010E94DA052AE939E967
S113071049E15FE30E94470620E030E040E752E40D
S11307200E9476076B017C010E94B9069982888237
S11307307B836A8380E090E00E94E8069B01AC0121
S1130740C701B6010E94DA0520E030E040E752E438
S11307500E94760720E030E040E251E40E947607F0
S11307600E94B9067D836C83DF91CF91FF90EF9057
S1130770DF90CF90BF90AF909F908F9008952F926D
S11307803F924F925F926F927F928F929F92AF921D
S1130790BF92CF92DF92EF92FF920F931F93CF936A
S11307A0DF93CDB7DEB76B970FB6F894DEBF0FBEFD
S11307B0CDBF8C011B011F8286E0F801DE0111967A
S11307C001900D928A95E1F765E671E0CE010196FC
S11307D00E94EC07892B09F0B3C098013801280165
S11307E05801C80140E050E0F9012F5F3F4F60819C
S11307F06C32C1F44330510520F44F5F5F4FCF0199
S113080011C04530510520F44F5F5F4F5F010AC0AE
S11308104730510520F44F5F5F4F3F0103C04F5FE6
S11308205F4F2F0148305105F8F26CE671E00196F4
S11308300E94E707009709F47BC00E94E3076B015D
S11308407C016CE671E0C50101960E94E707009700
S113085009F470C00E94E3074B015C016CE671E08F
S1130860C30101960E94E707009709F465C00E943E
S1130870E3076C8B7D8B8E8B9F8B6CE671E0C201E2
S113088001960E94E707009709F458C00E94E30705
S1130890688F798F8A8F9B8FAE01425F5F4FC7014C
S11308A0B6010E946503AE01485F5F4FC501B40104
S11308B00E9465038E859F85892BA9F0888599857B
S11308C0892B89F086E0FE013E96D10101900D92BC
S11308D08A95E1F786E0FE013896D10116960190DB
S11308E00D928A95E1F720E030E040E251E4688D12
S11308F0798D8A8D9B8D0E9476070E94B906F1013D
S11309007587648720E030E048EC52E46C897D8987
S11309108E899F890E9476070E94B906F101778724
S1130920668781E0F8019089913459F080E009C02C
S113093080E007C080E005C080E003C080E001C023
S113094080E06B960FB6F894DEBF0FBECDBFDF918B
S1130950CF911F910F91FF90EF90DF90CF90BF90B8
S1130960AF909F908F907F906F905F904F903F904B
S11309702F900895CF93DF93CDB7DEB7C35CD10931
S11309800FB6F894DEBF0FBECDBF0E944F03209A6E
S1130990219A229A8AE20E94950078941A821B82F4
S11309A01C821D821E821F8285E089838EE4E1E021
S11309B0F1E0DE01AD5BBF4F01900D928A95E1F746
S11309C0FE01EF56FF4F86E1DF011D928A95E9F79C
S11309D0769680E1DF011D928A95E9F76FE0CE01FA
S11309E001960E94D100CD53DF4F1882C35CD040E2
S11309F0CE53DF4F1882C25CD0406E01B3E4CB0EFD
S1130A00D11C0F2EF4E22F2EF02D7E01E7EAEE0E1C
S1130A10F11C5E01F7EBAF0EB11C4C2C5D2CC60132
S1130A200196C254DF4F99838883CE5BD040C05473
S1130A30DF4FE882C05CD040CF53DF4FF882C15C07
S1130A40D0406A2C7B2C4E0193E1890E911C0F2E11
S1130A50F6E03F2EF02D0E945D03843209F483C03A
S1130A600E945D038432E1F77EC0D8018D938D012D
S1130A708A3029F00E945D030E151F05B1F7F501B8
S1130A801682E42DF52DA62DB72D832D01900D9200
S1130A908A95E1F765E671E0862D972D0E94EC07B3
S1130AA0892B09F46BC0D7CFFA01808191814E5F05
S1130AB05F4F9D0121503109F90190838C93129667
S1130AC0A815B90589F71A8B60E1CE0101960E9439
S1130AD0D1000E9443010E94AF00882399F0CE0107
S1130AE082960E94B2008AA1853061F460E1CE0151
S1130AF001960E94D100289AF5E0CD53DF4FF88388
S1130B00C35CD040112311F0299A01C02998CD5318
S1130B10DF4F8881C35CD040882349F08150CD5396
S1130B20DF4F8883C35CD040811101C02898CE5325
S1130B30DF4F9881C25CD040913049F495B184E094
S1130B40892785B9CE53DF4F1882C25CD040CE537B
S1130B50DF4FA881C25CD040AF5FCE53DF4FA88384
S1130B60C25CD04074CFF60120820E945D03C2545F
S1130B70DF4F08811981CE5BD04077CFC054DF4F5F
S1130B806881C05CD040CF53DF4F7881C15CD040D6
S1130B90842D952D0E94BF03182FC054DF4F488128
S1130BA0C05CD040CF53DF4F5881C15CD040DE01E0
S1130BB013967ACF5058BB27AA270E94F2050C94AB
S1130BC03C070E942E0738F00E94350720F039F4C4
S1130BD09F3F19F426F40C942B070EF4E095E7FBE1
S1130BE00C942507E92F0E944D0758F3BA176207A2
S1130BF073078407950720F079F4A6F50C946F0722
S1130C000EF4E0950B2EBA2FA02D0B01B901900123
S1130C100C01CA01A0011124FF27591B99F0593F67
S1130C2050F4503E68F11A16F040A22F232F342FAF
S1130C304427585FF3CF469537952795A795F040FD
S1130C405395C9F77EF41F16BA0B620B730B840B12
S1130C50BAF09150A1F0FF0FBB1F661F771F881FCA
S1130C60C2F70EC0BA0F621F731F841F48F4879522
S1130C7077956795B795F7959E3F08F0B0CF939514
S1130C80880F08F09927EE0F9795879508950E948D
S1130C905B060C943C070E94350758F00E942E070F
S1130CA040F029F45F3F29F00C94250751110C946E
S1130CB070070C942B070E944D0768F39923B1F336
S1130CC0552391F3951B550BBB27AA27621773076E
S1130CD0840738F09F5F5F4F220F331F441FAA1F02
S1130CE0A9F335D00E2E3AF0E0E832D091505040BE
S1130CF0E695001CCAF72BD0FE2F29D0660F771F6C
S1130D00881FBB1F261737074807AB07B0E809F051
S1130D10BB0B802DBF01FF2793585F4F3AF09E3FD6
S1130D20510578F00C9425070C9470075F3FE4F3A9
S1130D30983ED4F3869577956795B795F7959F5F19
S1130D40C9F7880F911D9695879597F90895E1E065
S1130D50660F771F881FBB1F621773078407BA07C4
S1130D6020F0621B730B840BBA0BEE1F88F7E0951F
S1130D7008950E94550788F09F5798F0B92F992736
S1130D80B751B0F0E1F0660F771F881F991F1AF072
S1130D90BA95C9F714C0B13091F00E946F07B1E061
S1130DA008950C946F07672F782F8827B85F39F060
S1130DB0B93FCCF3869577956795B395D9F73EF40B
S1130DC090958095709561957F4F8F4F9F4F0895B3
S1130DD0E89409C097FB3EF49095809570956195D1
S1130DE07F4F8F4F9F4F9923A9F0F92F96E9BB2787
S1130DF09395F695879577956795B795F111F8CF03
S1130E00FAF4BB0F11F460FF1BC06F5F7F4F8F4F6D
S1130E109F4F16C0882311F096E911C0772321F063
S1130E209EE8872F762F05C0662371F096E8862FFB
S1130E3070E060E02AF09A95660F771F881FDAF752
S1130E40880F9695879597F9089597F99F6780E895
S1130E5070E060E008959FEF80EC089500240A9408
S1130E601616170618060906089500240A94121681
S1130E701306140605060895092E0394000C11F4B4
S1130E80882352F0BB0F40F4BF2B11F460FF04C061
S1130E906F5F7F4F8F4F9F4F089557FD9058440FBA
S1130EA0551F59F05F3F71F04795880F97FB991FC5
S1130EB061F09F3F79F08795089512161306140682
S1130EC0551FF2CF4695F1DF08C01616170618060F
S1130ED0991FF1CF86957105610508940895E894EA
S1130EE0BB2766277727CB0197F908950E948907C6
S1130EF00C943C070E942E0738F00E94350720F01E
S1130F00952311F00C9425070C942B0711240C94B1
S1130F1070070E944D0770F3959FC1F3950F50E041
S1130F20551F629FF001729FBB27F00DB11D639F97
S1130F30AA27F00DB11DAA1F649F6627B00DA11D3D
S1130F40661F829F2227B00DA11D621F739FB00DE3
S1130F50A11D621F839FA00D611D221F749F332753
S1130F60A00D611D231F849F600D211D822F762FEC
S1130F706A2F11249F5750409AF0F1F088234AF0C9
S1130F80EE0FFF1FBB1F661F771F881F9150504035
S1130F90A9F79E3F510580F00C9425070C94700727
S1130FA05F3FE4F3983ED4F3869577956795B795BC
S1130FB0F795E7959F5FC1F7FE2B880F911D9695D6
S1130FC0879597F90895662777270C941C084EE6B1
S1130FD051E00E94F5070895FB01DC018D91019019
S1130FE080190110D9F3990B0895FA01A191B081E8
S1130FF0009719F41097E1F0CD01DC01CD010D90BB
S1131000002011F4C00113C0FB012191222319F027
S11310102015D9F7F3CFFB012191201519F41E9265
S1131020119606C02223C1F70D900020A1F7D0012C
S1131030FA01A193B0830895A0E0B0E0E2E2F8E001
S11310400C94D509EC017B016115710519F0DB01E4
S11310508D939C938E010F5F1F4F7880872D90E0B6
S11310600E947909892B11F0E801F4CFBDE27B12CB
S113107005C00F5F1F4F7980C1E008C0EBE27E120C
S113108004C08E010E5F1F4F7980C0E06801F1E05B
S1131090CF1AD10843E050E060E770E0C6010E9437
S11310A08209892BF1F4680122E0C20ED11C45E0CB
S11310B050E06BE670E0C6010E948209892B21F49E
S11310C0680187E0C80ED11CE114F10419F0D701BE
S11310D0CD92DC92C111FFC060E070E080E89FE730
S11310E003C143E050E068E670E0C6010E94820953
S11310F0892B51F4E114F10409F4F2C00E5F1F4F7F
S1131100F70111830083ECC0680160E070E0CB015B
S113111000E010E0F601D0EDD70DDA3058F52C2FB1
S11311202260622E2C2F2870C2FF05C0211128C016
S11311300F5F1F4F25C0222311F001501109A5E0B4
S1131140B0E09B01AC010E94C6094B015C01880C14
S1131150991CAA1CBB1CC501B4016D0F711D811D16
S1131160911D6839A9E97A078A07A9E19A0740F02D
S1131170C66005C0DE3F51F4C3FD44C0C8606C2E98
S1131180BFEFCB1ADB0A7080C62DC4CF2D2F2F7D65
S11311902531C1F540814D3211F4C06106C04B3296
S11311A021F0319621E030E006C03296D601119646
S11311B04C9122E030E0A0EDA40FAA3018F0E21B1D
S11311C0F30B20C040E050E04038BCE05B075CF427
S11311D09A01220F331F220F331F420F531F440F54
S11311E0551F4A0F511D3196DF0111972C91A0ED27
S11311F0A20FAA3048F3C4FF03C051954195510989
S1131200040F151FC1FF07C0E114F10421F0319749
S1131210D701ED93FC930E94E806C370C33019F024
S11312206B017C0106C06B017C01F7FAF094F7F8BE
S1131230F09420E030E0A901C701B6010E949A09A8
S1131240882309F445C017FF06C0119501951109BB
S1131250C7E8D0E002C0CFE9D0E05E01B8E1AB1A44
S1131260B1084601BE2DAF2D90E2E92EF12C0E15EA
S11312701F0584F0FE012591359145915491B401E7
S11312808B2F9A2F0E9476074B01B82FA92F0E1986
S11312901F09EDCF2497F594E794CA15DB0539F7B8
S11312A06401EB2EFA2E8E2D880F8F2D881F8F3F11
S11312B049F020E030E0A901C701B6010E949A0973
S11312C0811106C082E290E09093E0038093DF03F3
S11312D0C701B60109C060E070E080E89FEF04C078
S11312E060E070E080EC9FE7CDB7DEB7EEE00C94F1
S11312F0F10991110C94C309803219F08950855079
S1131300C8F70895FB01DC014150504088F08D91ED
S113131081341CF08B350CF4805E659161341CF0D3
S11313206B350CF4605E861B611171F3990B0895A3
S1131330881BFCCF0E949F0908F481E00895990F4F
S11313400008550FAA0BE0E8FEEF16161706E8078B
S1131350F907C0F012161306E407F50798F0621BAC
S1131360730B840B950B39F40A2661F0232B242B81
S1131370252B21F408950A2609F4A140A6958FEFA0
S1131380811D811D08959927882708950E94080AC0
S1131390A59F900DB49F900DA49F800D911D1124C5
S11313A008952F923F924F925F926F927F928F9205
S11313B09F92AF92BF92CF92DF92EF92FF920F93E0
S11313C01F93CF93DF93CDB7DEB7CA1BDB0B0FB6EA
S11313D0F894DEBF0FBECDBF09942A8839884888A7
S11313E05F846E847D848C849B84AA84B984C8843D
S11313F0DF80EE80FD800C811B81AA81B981CE0F34
S1131400D11D0FB6F894DEBF0FBECDBFED01089518
S1131410A29FB001B39FC001A39F700D811D112431
S1131420911DB29F700D811D1124911D0895F89492
S1051430FFCFE8
S113143201244750524D432C3032303130362E3253
S11314422C562C303030302E30303030302C4E2C64
S113145230303030302E30303030302C572C303069
S1131462302E31382C3330302E362C313530393160
S1131472362C3030312E382C572C412A334400007C
S11314820000000000000000000000000000000056
S11114920000000000244750524D43002C007F
S9030000FC
