:100000000C945A000C9477000C9477000C947700B1
:100010000C9477000C9477000C9477000C94770084
:100020000C9477000C9452020C9477000C94770097
:100030000C9477000C9477000C9477000C94770064
:100040000C9477000C9477000C9477000C94770054
:100050000C9477000C9477000C9477000C94770044
:100060000C9478020C9477000C9477000C94770031
:100070000C9477000C9477000C9477000C94770024
:100080000C9477000C9477000C9477000C94770014
:100090000C9477000C9477000C9477000C94770004
:1000A0000C9477000C9477000C9477000C947700F4
:1000B0000C94770011241FBECFEFD8E0DEBFCDBF78
:1000C00011E0A0E0B1E0EAEBF6E002C005900D928D
:1000D000A230B107D9F722E0A2E0B1E001C01D9241
:1000E000A336B207E1F70E9414030C945B030C944F
:1000F000000080912102882399F0EFE1F2E08281F3
:1001000081508283A181B0E0A15EBD4F13968C9196
:1001100091819F5F91839181903411F4109220021C
:100120000895EFE1F2E010821182128210926202D1
:10013000EBE1F1E010821182128210921E02809394
:100140000001880F8093BA00ECEBF0E084E080833C
:1001500085EC808308955F926F927F928F929F9239
:10016000AF92BF92CF92DF92EF92FF920F931F93C5
:10017000CF93DF93CDB7DEB764970FB6F894DEBFA9
:100180000FBECDBF80912102882309F409C1FE0171
:100190003196CE01459611928E179F07E1F7809117
:1001A0002102882309F4E6C089818B3A69F00FE1C6
:1001B00012E00E9479008983D80112969C919923BC
:1001C00009F4D8C08B3AA9F780912102882309F459
:1001D000DDC003C09281992341F00E947900582E1E
:1001E0008A83B2E1B81750F4BFC0AFECB7E0119703
:1001F000F1F700C00000815069F7B6C0882E912C3D
:100200003401B2E06B0E711CE3E06E16710404F56C
:100210006894EE24E1F8F12C31C0D80112969C913B
:10022000992369F00E947900F60181936F01FFEF35
:10023000EF1AFF0AEA14FB04D1F475011FC0AFECFA
:10024000B7E01197F1F700C00000815031F716C0F8
:100250006E01B3E0CB0ED11CA82EB12CE2E0AE0EA5
:10026000B11C6894EE24E1F8F12C0FE112E0D80102
:1002700012968C91882309F481C0D4CF6E147F0428
:1002800009F05EC0FE01E80DF91D82818D3C09F088
:100290006BC0B2E08B1691047CF0FE01329621E037
:1002A00030E02C0F3D1F250D311D80E091918927F5
:1002B0002E173F07D9F701C080E0FE01E80DF91DB8
:1002C0009181981351C080911B0190E1899FF001A9
:1002D0001124E55EFE4F9B819383A4E08A1691046E
:1002E0009CF0DE01149690E1899FF0011124E15EFB
:1002F000FE4F21E030E02C0F3D1F250D311D9D915B
:100300009193A217B307D9F78F5F80931B018031B8
:1003100011F410921B0180911D01803120F48F5F38
:1003200080931D013DC0EBE1F1E081E080931E026E
:1003300081818F5F8183803199F510921C0130C0DB
:1003400080910301909104010196909304018093A0
:100350000301892B49F09BB181E089278BB95A9819
:100360001092040110920301809102018F5F80932B
:10037000020116C089818B3AB9F726CFAFECB7E0FE
:100380001197F1F700C0000089E047CFEFECF7E0EC
:100390003197F1F700C0000089E0EFE1F2E01ACFF9
:1003A00064960FB6F894DEBF0FBECDBFDF91CF913C
:1003B0001F910F91FF90EF90DF90CF90BF90AF9083
:1003C0009F908F907F906F905F90089580911D0116
:1003D0000895CF93DF93DC0180911D018823E9F01C
:1003E000CBE1D1E0E98180E1E89FF0011124E25EF8
:1003F000FE4F90E101900D929A95E1F789818F5F10
:10040000803119F080931C0102C010921C01EBE1B5
:10041000F1E082818150828381E0DF91CF91089564
:10042000DC01E7E0F1E08BEA808333E0360F3183D3
:100430009C91928370E06D5F7F4F6430710574F121
:1004400023E030E093E0FD01E20FF31F329740819B
:10045000F901E95FFE4F40839F5F292F30E02617A7
:1004600037078CF312C0FC01E95FFE4F808138270B
:100470002F5F822F90E086179707ACF3FC01E95FAE
:10048000FE4F30838DEC81830895E7E0F1E0318108
:100490008281382783E090E023E0E5CF392783E0AD
:1004A00090E0ECCF1F920F920FB60F9211248F9312
:1004B000EF93FF93ECEBF0E080E180838AE18A9593
:1004C000F1F700C080910001880F8093BA0084E0AA
:1004D000808385EC8083E1EBF0E080818D7F8083F9
:1004E000FF91EF918F910F900FBE0F901F90189575
:1004F0001F920F920FB60F9211248F939F93AF9379
:10050000BF93EF93FF938091B900883809F47AC0C4
:1005100090F4883609F442C030F4882309F472C09C
:100520008036E1F173C08837C9F18038D9F180375E
:1005300009F06CC033C0883A99F050F4883909F456
:1005400061C0803A09F45AC0803909F05FC02AC0FE
:10055000803C01F1883C09F455C0883B39F056C015
:1005600087E091E09093060180930501E0910501F9
:10057000F091060180818093BB00809105019091EC
:1005800006010196909306018093050185EC809306
:10059000BC003FC085EC8093BC003BC085EC8093E1
:1005A000BC0037C08091BB00AFE1B2E0EC91F0E05D
:1005B000E15EFD4F83838C918F5F8C938C918034AF
:1005C00011F410921F0280912102803430F4EFE187
:1005D000F2E082818F5F82830DC0EFE1F2E081E083
:1005E0008093620281818F5F81838181803411F4E5
:1005F0001092200285EC8093BC000BC085EC8093A8
:10060000BC0007C080E98093BC0003C085EC8093E8
:10061000BC00FF91EF91BF91AF919F918F910F908F
:100620000FBE0F901F901895CF93DF93CDB7DEB715
:10063000A0970FB6F894DEBF0FBECDBF509A519A67
:10064000529A8AEA0E94910078941A8A1B8AE12CB5
:10065000F12C00E010E06894DD24D2F862E0CE01D5
:1006600041960E9410020E94AB000E94E60188237E
:1006700091F08BB18D258BB95898CE0101960E94CF
:10068000E9018981873039F48BB184708BB98A8B09
:10069000EB8AE12CF12C0F5F1F4F083E83E0180717
:1006A00030F09BB182E089278BB900E010E08FEF3A
:0A06B000E81AF80AD3CFF894FFCF40
:0206BA0001003D
:00000001FF
